{
  "_format": "hh-sol-artifact-1",
  "contractName": "BadgeNFT",
  "sourceName": "contracts/BadgeNFT.sol",
  "abi": [
    {
      "inputs": [
        {
          "internalType": "string",
          "name": "baseUri",
          "type": "string"
        }
      ],
      "stateMutability": "nonpayable",
      "type": "constructor"
    },
    {
      "inputs": [
        {
          "internalType": "address",
          "name": "sender",
          "type": "address"
        },
        {
          "internalType": "uint256",
          "name": "balance",
          "type": "uint256"
        },
        {
          "internalType": "uint256",
          "name": "needed",
          "type": "uint256"
        },
        {
          "internalType": "uint256",
          "name": "tokenId",
          "type": "uint256"
        }
      ],
      "name": "ERC1155InsufficientBalance",
      "type": "error"
    },
    {
      "inputs": [
        {
          "internalType": "address",
          "name": "approver",
          "type": "address"
        }
      ],
      "name": "ERC1155InvalidApprover",
      "type": "error"
    },
    {
      "inputs": [
        {
          "internalType": "uint256",
          "name": "idsLength",
          "type": "uint256"
        },
        {
          "internalType": "uint256",
          "name": "valuesLength",
          "type": "uint256"
        }
      ],
      "name": "ERC1155InvalidArrayLength",
      "type": "error"
    },
    {
      "inputs": [
        {
          "internalType": "address",
          "name": "operator",
          "type": "address"
        }
      ],
      "name": "ERC1155InvalidOperator",
      "type": "error"
    },
    {
      "inputs": [
        {
          "internalType": "address",
          "name": "receiver",
          "type": "address"
        }
      ],
      "name": "ERC1155InvalidReceiver",
      "type": "error"
    },
    {
      "inputs": [
        {
          "internalType": "address",
          "name": "sender",
          "type": "address"
        }
      ],
      "name": "ERC1155InvalidSender",
      "type": "error"
    },
    {
      "inputs": [
        {
          "internalType": "address",
          "name": "operator",
          "type": "address"
        },
        {
          "internalType": "address",
          "name": "owner",
          "type": "address"
        }
      ],
      "name": "ERC1155MissingApprovalForAll",
      "type": "error"
    },
    {
      "inputs": [
        {
          "internalType": "address",
          "name": "owner",
          "type": "address"
        }
      ],
      "name": "OwnableInvalidOwner",
      "type": "error"
    },
    {
      "inputs": [
        {
          "internalType": "address",
          "name": "account",
          "type": "address"
        }
      ],
      "name": "OwnableUnauthorizedAccount",
      "type": "error"
    },
    {
      "anonymous": false,
      "inputs": [
        {
          "indexed": true,
          "internalType": "address",
          "name": "account",
          "type": "address"
        },
        {
          "indexed": true,
          "internalType": "address",
          "name": "operator",
          "type": "address"
        },
        {
          "indexed": false,
          "internalType": "bool",
          "name": "approved",
          "type": "bool"
        }
      ],
      "name": "ApprovalForAll",
      "type": "event"
    },
    {
      "anonymous": false,
      "inputs": [
        {
          "indexed": true,
          "internalType": "address",
          "name": "previousOwner",
          "type": "address"
        },
        {
          "indexed": true,
          "internalType": "address",
          "name": "newOwner",
          "type": "address"
        }
      ],
      "name": "OwnershipTransferred",
      "type": "event"
    },
    {
      "anonymous": false,
      "inputs": [
        {
          "indexed": true,
          "internalType": "address",
          "name": "operator",
          "type": "address"
        },
        {
          "indexed": true,
          "internalType": "address",
          "name": "from",
          "type": "address"
        },
        {
          "indexed": true,
          "internalType": "address",
          "name": "to",
          "type": "address"
        },
        {
          "indexed": false,
          "internalType": "uint256[]",
          "name": "ids",
          "type": "uint256[]"
        },
        {
          "indexed": false,
          "internalType": "uint256[]",
          "name": "values",
          "type": "uint256[]"
        }
      ],
      "name": "TransferBatch",
      "type": "event"
    },
    {
      "anonymous": false,
      "inputs": [
        {
          "indexed": true,
          "internalType": "address",
          "name": "operator",
          "type": "address"
        },
        {
          "indexed": true,
          "internalType": "address",
          "name": "from",
          "type": "address"
        },
        {
          "indexed": true,
          "internalType": "address",
          "name": "to",
          "type": "address"
        },
        {
          "indexed": false,
          "internalType": "uint256",
          "name": "id",
          "type": "uint256"
        },
        {
          "indexed": false,
          "internalType": "uint256",
          "name": "value",
          "type": "uint256"
        }
      ],
      "name": "TransferSingle",
      "type": "event"
    },
    {
      "anonymous": false,
      "inputs": [
        {
          "indexed": false,
          "internalType": "string",
          "name": "value",
          "type": "string"
        },
        {
          "indexed": true,
          "internalType": "uint256",
          "name": "id",
          "type": "uint256"
        }
      ],
      "name": "URI",
      "type": "event"
    },
    {
      "inputs": [
        {
          "internalType": "uint256",
          "name": "",
          "type": "uint256"
        }
      ],
      "name": "badges",
      "outputs": [
        {
          "internalType": "string",
          "name": "name",
          "type": "string"
        },
        {
          "internalType": "string",
          "name": "description",
          "type": "string"
        }
      ],
      "stateMutability": "view",
      "type": "function"
    },
    {
      "inputs": [
        {
          "internalType": "address",
          "name": "account",
          "type": "address"
        },
        {
          "internalType": "uint256",
          "name": "id",
          "type": "uint256"
        }
      ],
      "name": "balanceOf",
      "outputs": [
        {
          "internalType": "uint256",
          "name": "",
          "type": "uint256"
        }
      ],
      "stateMutability": "view",
      "type": "function"
    },
    {
      "inputs": [
        {
          "internalType": "address[]",
          "name": "accounts",
          "type": "address[]"
        },
        {
          "internalType": "uint256[]",
          "name": "ids",
          "type": "uint256[]"
        }
      ],
      "name": "balanceOfBatch",
      "outputs": [
        {
          "internalType": "uint256[]",
          "name": "",
          "type": "uint256[]"
        }
      ],
      "stateMutability": "view",
      "type": "function"
    },
    {
      "inputs": [
        {
          "internalType": "address",
          "name": "",
          "type": "address"
        },
        {
          "internalType": "uint256",
          "name": "",
          "type": "uint256"
        }
      ],
      "name": "hasBadge",
      "outputs": [
        {
          "internalType": "bool",
          "name": "",
          "type": "bool"
        }
      ],
      "stateMutability": "view",
      "type": "function"
    },
    {
      "inputs": [
        {
          "internalType": "address",
          "name": "account",
          "type": "address"
        },
        {
          "internalType": "address",
          "name": "operator",
          "type": "address"
        }
      ],
      "name": "isApprovedForAll",
      "outputs": [
        {
          "internalType": "bool",
          "name": "",
          "type": "bool"
        }
      ],
      "stateMutability": "view",
      "type": "function"
    },
    {
      "inputs": [
        {
          "internalType": "address",
          "name": "to",
          "type": "address"
        },
        {
          "internalType": "uint256",
          "name": "tokenId",
          "type": "uint256"
        }
      ],
      "name": "mintBadge",
      "outputs": [],
      "stateMutability": "nonpayable",
      "type": "function"
    },
    {
      "inputs": [
        {
          "internalType": "address",
          "name": "to",
          "type": "address"
        },
        {
          "internalType": "uint256[]",
          "name": "tokenIds",
          "type": "uint256[]"
        }
      ],
      "name": "mintBatchBadges",
      "outputs": [],
      "stateMutability": "nonpayable",
      "type": "function"
    },
    {
      "inputs": [],
      "name": "owner",
      "outputs": [
        {
          "internalType": "address",
          "name": "",
          "type": "address"
        }
      ],
      "stateMutability": "view",
      "type": "function"
    },
    {
      "inputs": [],
      "name": "renounceOwnership",
      "outputs": [],
      "stateMutability": "nonpayable",
      "type": "function"
    },
    {
      "inputs": [
        {
          "internalType": "address",
          "name": "",
          "type": "address"
        },
        {
          "internalType": "address",
          "name": "",
          "type": "address"
        },
        {
          "internalType": "uint256[]",
          "name": "",
          "type": "uint256[]"
        },
        {
          "internalType": "uint256[]",
          "name": "",
          "type": "uint256[]"
        },
        {
          "internalType": "bytes",
          "name": "",
          "type": "bytes"
        }
      ],
      "name": "safeBatchTransferFrom",
      "outputs": [],
      "stateMutability": "nonpayable",
      "type": "function"
    },
    {
      "inputs": [
        {
          "internalType": "address",
          "name": "",
          "type": "address"
        },
        {
          "internalType": "address",
          "name": "",
          "type": "address"
        },
        {
          "internalType": "uint256",
          "name": "",
          "type": "uint256"
        },
        {
          "internalType": "uint256",
          "name": "",
          "type": "uint256"
        },
        {
          "internalType": "bytes",
          "name": "",
          "type": "bytes"
        }
      ],
      "name": "safeTransferFrom",
      "outputs": [],
      "stateMutability": "nonpayable",
      "type": "function"
    },
    {
      "inputs": [
        {
          "internalType": "address",
          "name": "",
          "type": "address"
        },
        {
          "internalType": "bool",
          "name": "",
          "type": "bool"
        }
      ],
      "name": "setApprovalForAll",
      "outputs": [],
      "stateMutability": "nonpayable",
      "type": "function"
    },
    {
      "inputs": [
        {
          "internalType": "uint256",
          "name": "tokenId",
          "type": "uint256"
        },
        {
          "internalType": "string",
          "name": "name",
          "type": "string"
        },
        {
          "internalType": "string",
          "name": "description",
          "type": "string"
        }
      ],
      "name": "setBadgeInfo",
      "outputs": [],
      "stateMutability": "nonpayable",
      "type": "function"
    },
    {
      "inputs": [
        {
          "internalType": "bytes4",
          "name": "interfaceId",
          "type": "bytes4"
        }
      ],
      "name": "supportsInterface",
      "outputs": [
        {
          "internalType": "bool",
          "name": "",
          "type": "bool"
        }
      ],
      "stateMutability": "view",
      "type": "function"
    },
    {
      "inputs": [
        {
          "internalType": "address",
          "name": "newOwner",
          "type": "address"
        }
      ],
      "name": "transferOwnership",
      "outputs": [],
      "stateMutability": "nonpayable",
      "type": "function"
    },
    {
      "inputs": [
        {
          "internalType": "uint256",
          "name": "id",
          "type": "uint256"
        }
      ],
      "name": "uri",
      "outputs": [
        {
          "internalType": "string",
          "name": "",
          "type": "string"
        }
      ],
      "stateMutability": "view",
      "type": "function"
    }
  ],
  "bytecode": "0x608060405234801561001057600080fd5b5060405161352c38038061352c8339818101604052810190610032919061031a565b3381610043816100cc60201b60201c565b50600073ffffffffffffffffffffffffffffffffffffffff168173ffffffffffffffffffffffffffffffffffffffff16036100b65760006040517f1e4fbdf70000000000000000000000000000000000000000000000000000000081526004016100ad91906103a4565b60405180910390fd5b6100c5816100df60201b60201c565b50506106b2565b80600290816100db91906105e0565b5050565b6000600360009054906101000a900473ffffffffffffffffffffffffffffffffffffffff16905081600360006101000a81548173ffffffffffffffffffffffffffffffffffffffff021916908373ffffffffffffffffffffffffffffffffffffffff1602179055508173ffffffffffffffffffffffffffffffffffffffff168173ffffffffffffffffffffffffffffffffffffffff167f8be0079c531659141344cd1fd0a4f28419497f9722a3daafe3b4186f6b6457e060405160405180910390a35050565b6000604051905090565b600080fd5b600080fd5b600080fd5b600080fd5b6000601f19601f8301169050919050565b7f4e487b7100000000000000000000000000000000000000000000000000000000600052604160045260246000fd5b61020c826101c3565b810181811067ffffffffffffffff8211171561022b5761022a6101d4565b5b80604052505050565b600061023e6101a5565b905061024a8282610203565b919050565b600067ffffffffffffffff82111561026a576102696101d4565b5b610273826101c3565b9050602081019050919050565b60005b8381101561029e578082015181840152602081019050610283565b60008484015250505050565b60006102bd6102b88461024f565b610234565b9050828152602081018484840111156102d9576102d86101be565b5b6102e4848285610280565b509392505050565b600082601f830112610301576103006101b9565b5b81516103118482602086016102aa565b91505092915050565b6000602082840312156103305761032f6101af565b5b600082015167ffffffffffffffff81111561034e5761034d6101b4565b5b61035a848285016102ec565b91505092915050565b600073ffffffffffffffffffffffffffffffffffffffff82169050919050565b600061038e82610363565b9050919050565b61039e81610383565b82525050565b60006020820190506103b96000830184610395565b92915050565b600081519050919050565b7f4e487b7100000000000000000000000000000000000000000000000000000000600052602260045260246000fd5b6000600282049050600182168061041157607f821691505b602082108103610424576104236103ca565b5b50919050565b60008190508160005260206000209050919050565b60006020601f8301049050919050565b600082821b905092915050565b60006008830261048c7fffffffffffffffffffffffffffffffffffffffffffffffffffffffffffffffff8261044f565b610496868361044f565b95508019841693508086168417925050509392505050565b6000819050919050565b6000819050919050565b60006104dd6104d86104d3846104ae565b6104b8565b6104ae565b9050919050565b6000819050919050565b6104f7836104c2565b61050b610503826104e4565b84845461045c565b825550505050565b600090565b610520610513565b61052b8184846104ee565b505050565b5b8181101561054f57610544600082610518565b600181019050610531565b5050565b601f821115610594576105658161042a565b61056e8461043f565b8101602085101561057d578190505b6105916105898561043f565b830182610530565b50505b505050565b600082821c905092915050565b60006105b760001984600802610599565b1980831691505092915050565b60006105d083836105a6565b9150826002028217905092915050565b6105e9826103bf565b67ffffffffffffffff811115610602576106016101d4565b5b61060c82546103f9565b610617828285610553565b600060209050601f83116001811461064a5760008415610638578287015190505b61064285826105c4565b8655506106aa565b601f1984166106588661042a565b60005b828110156106805784890151825560018201915060208501945060208101905061065b565b8683101561069d5784890151610699601f8916826105a6565b8355505b6001600288020188555050505b505050505050565b612e6b806106c16000396000f3fe608060405234801561001057600080fd5b50600436106100ff5760003560e01c8063715018a611610097578063e42bff6611610066578063e42bff66146102bd578063e985e9c5146102d9578063f242432a14610309578063f2fde38b14610325576100ff565b8063715018a6146102485780638da5cb5b1461025257806398e36d8b14610270578063a22cb465146102a1576100ff565b806337378589116100d357806337378589146101b057806339d977dd146101cc5780634c6a70ce146101e85780634e1273f414610218576100ff565b8062fdd58e1461010457806301ffc9a7146101345780630e89341c146101645780632eb2c2d614610194575b600080fd5b61011e60048036038101906101199190611bcf565b610341565b60405161012b9190611c1e565b60405180910390f35b61014e60048036038101906101499190611c91565b61039b565b60405161015b9190611cd9565b60405180910390f35b61017e60048036038101906101799190611cf4565b61047d565b60405161018b9190611db1565b60405180910390f35b6101ae60048036038101906101a99190611fd0565b6104b8565b005b6101ca60048036038101906101c591906120fa565b6104f3565b005b6101e660048036038101906101e191906121e5565b6105e1565b005b61020260048036038101906101fd9190611bcf565b610811565b60405161020f9190611cd9565b60405180910390f35b610232600480360381019061022d9190612308565b610840565b60405161023f919061243e565b60405180910390f35b610250610949565b005b61025a61095d565b604051610267919061246f565b60405180910390f35b61028a60048036038101906102859190611cf4565b610987565b60405161029892919061248a565b60405180910390f35b6102bb60048036038101906102b691906124ed565b610abb565b005b6102d760048036038101906102d29190611bcf565b610af6565b005b6102f360048036038101906102ee919061252d565b610c25565b6040516103009190611cd9565b60405180910390f35b610323600480360381019061031e919061256d565b610cb9565b005b61033f600480360381019061033a9190612604565b610cf4565b005b600080600083815260200190815260200160002060008473ffffffffffffffffffffffffffffffffffffffff1673ffffffffffffffffffffffffffffffffffffffff16815260200190815260200160002054905092915050565b60007fd9b67a26000000000000000000000000000000000000000000000000000000007bffffffffffffffffffffffffffffffffffffffffffffffffffffffff1916827bffffffffffffffffffffffffffffffffffffffffffffffffffffffff1916148061046657507f0e89341c000000000000000000000000000000000000000000000000000000007bffffffffffffffffffffffffffffffffffffffffffffffffffffffff1916827bffffffffffffffffffffffffffffffffffffffffffffffffffffffff1916145b80610476575061047582610d7a565b5b9050919050565b606061048882610de4565b61049183610e78565b6040516020016104a29291906126b9565b6040516020818303038152906040529050919050565b6040517f08c379a00000000000000000000000000000000000000000000000000000000081526004016104ea90612734565b60405180910390fd5b6104fb610f46565b604051806040016040528085858080601f016020809104026020016040519081016040528093929190818152602001838380828437600081840152601f19601f82011690508083019250505050505050815260200183838080601f016020809104026020016040519081016040528093929190818152602001838380828437600081840152601f19601f820116905080830192505050505050508152506004600087815260200190815260200160002060008201518160000190816105c09190612960565b5060208201518160010190816105d69190612960565b509050505050505050565b6105e9610f46565b60008282905067ffffffffffffffff81111561060857610607611dd8565b5b6040519080825280602002602001820160405280156106365781602001602082028036833780820191505090505b50905060005b838390508110156107ae57600560008673ffffffffffffffffffffffffffffffffffffffff1673ffffffffffffffffffffffffffffffffffffffff168152602001908152602001600020600085858481811061069b5761069a612a32565b5b90506020020135815260200190815260200160002060009054906101000a900460ff16156106fe576040517f08c379a00000000000000000000000000000000000000000000000000000000081526004016106f590612aad565b60405180910390fd5b6001600560008773ffffffffffffffffffffffffffffffffffffffff1673ffffffffffffffffffffffffffffffffffffffff168152602001908152602001600020600086868581811061075457610753612a32565b5b90506020020135815260200190815260200160002060006101000a81548160ff021916908315150217905550600182828151811061079557610794612a32565b5b602002602001018181525050808060010191505061063c565b5061080b84848480806020026020016040519081016040528093929190818152602001838360200280828437600081840152601f19601f820116905080830192505050505050508360405180602001604052806000815250610fcd565b50505050565b60056020528160005260406000206020528060005260406000206000915091509054906101000a900460ff1681565b6060815183511461088c57815183516040517f5b059991000000000000000000000000000000000000000000000000000000008152600401610883929190612acd565b60405180910390fd5b6000835167ffffffffffffffff8111156108a9576108a8611dd8565b5b6040519080825280602002602001820160405280156108d75781602001602082028036833780820191505090505b50905060005b845181101561093e576109146108fc828761105390919063ffffffff16565b61090f838761106790919063ffffffff16565b610341565b82828151811061092757610926612a32565b5b6020026020010181815250508060010190506108dd565b508091505092915050565b610951610f46565b61095b600061107b565b565b6000600360009054906101000a900473ffffffffffffffffffffffffffffffffffffffff16905090565b60046020528060005260406000206000915090508060000180546109aa90612783565b80601f01602080910402602001604051908101604052809291908181526020018280546109d690612783565b8015610a235780601f106109f857610100808354040283529160200191610a23565b820191906000526020600020905b815481529060010190602001808311610a0657829003601f168201915b505050505090806001018054610a3890612783565b80601f0160208091040260200160405190810160405280929190818152602001828054610a6490612783565b8015610ab15780601f10610a8657610100808354040283529160200191610ab1565b820191906000526020600020905b815481529060010190602001808311610a9457829003601f168201915b5050505050905082565b6040517f08c379a0000000000000000000000000000000000000000000000000000000008152600401610aed90612b42565b60405180910390fd5b610afe610f46565b600560008373ffffffffffffffffffffffffffffffffffffffff1673ffffffffffffffffffffffffffffffffffffffff168152602001908152602001600020600082815260200190815260200160002060009054906101000a900460ff1615610b9c576040517f08c379a0000000000000000000000000000000000000000000000000000000008152600401610b9390612bae565b60405180910390fd5b6001600560008473ffffffffffffffffffffffffffffffffffffffff1673ffffffffffffffffffffffffffffffffffffffff168152602001908152602001600020600083815260200190815260200160002060006101000a81548160ff021916908315150217905550610c218282600160405180602001604052806000815250611141565b5050565b6000600160008473ffffffffffffffffffffffffffffffffffffffff1673ffffffffffffffffffffffffffffffffffffffff16815260200190815260200160002060008373ffffffffffffffffffffffffffffffffffffffff1673ffffffffffffffffffffffffffffffffffffffff16815260200190815260200160002060009054906101000a900460ff16905092915050565b6040517f08c379a0000000000000000000000000000000000000000000000000000000008152600401610ceb90612734565b60405180910390fd5b610cfc610f46565b600073ffffffffffffffffffffffffffffffffffffffff168173ffffffffffffffffffffffffffffffffffffffff1603610d6e5760006040517f1e4fbdf7000000000000000000000000000000000000000000000000000000008152600401610d65919061246f565b60405180910390fd5b610d778161107b565b50565b60007f01ffc9a7000000000000000000000000000000000000000000000000000000007bffffffffffffffffffffffffffffffffffffffffffffffffffffffff1916827bffffffffffffffffffffffffffffffffffffffffffffffffffffffff1916149050919050565b606060028054610df390612783565b80601f0160208091040260200160405190810160405280929190818152602001828054610e1f90612783565b8015610e6c5780601f10610e4157610100808354040283529160200191610e6c565b820191906000526020600020905b815481529060010190602001808311610e4f57829003601f168201915b50505050509050919050565b606060006001610e87846111da565b01905060008167ffffffffffffffff811115610ea657610ea5611dd8565b5b6040519080825280601f01601f191660200182016040528015610ed85781602001600182028036833780820191505090505b509050600082602083010190505b600115610f3b578080600190039150507f3031323334353637383961626364656600000000000000000000000000000000600a86061a8153600a8581610f2f57610f2e612bce565b5b04945060008503610ee6575b819350505050919050565b610f4e61132d565b73ffffffffffffffffffffffffffffffffffffffff16610f6c61095d565b73ffffffffffffffffffffffffffffffffffffffff1614610fcb57610f8f61132d565b6040517f118cdaa7000000000000000000000000000000000000000000000000000000008152600401610fc2919061246f565b60405180910390fd5b565b600073ffffffffffffffffffffffffffffffffffffffff168473ffffffffffffffffffffffffffffffffffffffff160361103f5760006040517f57f447ce000000000000000000000000000000000000000000000000000000008152600401611036919061246f565b60405180910390fd5b61104d600085858585611335565b50505050565b600060208202602084010151905092915050565b600060208202602084010151905092915050565b6000600360009054906101000a900473ffffffffffffffffffffffffffffffffffffffff16905081600360006101000a81548173ffffffffffffffffffffffffffffffffffffffff021916908373ffffffffffffffffffffffffffffffffffffffff1602179055508173ffffffffffffffffffffffffffffffffffffffff168173ffffffffffffffffffffffffffffffffffffffff167f8be0079c531659141344cd1fd0a4f28419497f9722a3daafe3b4186f6b6457e060405160405180910390a35050565b600073ffffffffffffffffffffffffffffffffffffffff168473ffffffffffffffffffffffffffffffffffffffff16036111b35760006040517f57f447ce0000000000000000000000000000000000000000000000000000000081526004016111aa919061246f565b60405180910390fd5b6000806111c085856113e7565b915091506111d2600087848487611335565b505050505050565b600080600090507a184f03e93ff9f4daa797ed6e38ed64bf6a1f0100000000000000008310611238577a184f03e93ff9f4daa797ed6e38ed64bf6a1f010000000000000000838161122e5761122d612bce565b5b0492506040810190505b6d04ee2d6d415b85acef81000000008310611275576d04ee2d6d415b85acef8100000000838161126b5761126a612bce565b5b0492506020810190505b662386f26fc1000083106112a457662386f26fc10000838161129a57611299612bce565b5b0492506010810190505b6305f5e10083106112cd576305f5e10083816112c3576112c2612bce565b5b0492506008810190505b61271083106112f25761271083816112e8576112e7612bce565b5b0492506004810190505b60648310611315576064838161130b5761130a612bce565b5b0492506002810190505b600a8310611324576001810190505b80915050919050565b600033905090565b61134185858585611417565b600073ffffffffffffffffffffffffffffffffffffffff168473ffffffffffffffffffffffffffffffffffffffff16146113e057600061137f61132d565b905060018451036113cf5760006113a060008661106790919063ffffffff16565b905060006113b860008661106790919063ffffffff16565b90506113c88389898585896117bf565b50506113de565b6113dd818787878787611973565b5b505b5050505050565b60608060405191506001825283602083015260408201905060018152826020820152604081016040529250929050565b805182511461146157815181516040517f5b059991000000000000000000000000000000000000000000000000000000008152600401611458929190612acd565b60405180910390fd5b600061146b61132d565b905060005b835181101561167a57600061148e828661106790919063ffffffff16565b905060006114a5838661106790919063ffffffff16565b9050600073ffffffffffffffffffffffffffffffffffffffff168873ffffffffffffffffffffffffffffffffffffffff16146115d257600080600084815260200190815260200160002060008a73ffffffffffffffffffffffffffffffffffffffff1673ffffffffffffffffffffffffffffffffffffffff1681526020019081526020016000205490508181101561157a57888183856040517f03dee4c50000000000000000000000000000000000000000000000000000000081526004016115719493929190612bfd565b60405180910390fd5b81810360008085815260200190815260200160002060008b73ffffffffffffffffffffffffffffffffffffffff1673ffffffffffffffffffffffffffffffffffffffff16815260200190815260200160002081905550505b600073ffffffffffffffffffffffffffffffffffffffff168773ffffffffffffffffffffffffffffffffffffffff161461166d578060008084815260200190815260200160002060008973ffffffffffffffffffffffffffffffffffffffff1673ffffffffffffffffffffffffffffffffffffffff16815260200190815260200160002060008282546116659190612c71565b925050819055505b5050806001019050611470565b50600183510361173957600061169a60008561106790919063ffffffff16565b905060006116b260008561106790919063ffffffff16565b90508573ffffffffffffffffffffffffffffffffffffffff168773ffffffffffffffffffffffffffffffffffffffff168473ffffffffffffffffffffffffffffffffffffffff167fc3d58168c5ae7397731d063d5bbf3d657854427343f4c083240f7aacaa2d0f62858560405161172a929190612acd565b60405180910390a450506117b8565b8373ffffffffffffffffffffffffffffffffffffffff168573ffffffffffffffffffffffffffffffffffffffff168273ffffffffffffffffffffffffffffffffffffffff167f4a39dc06d4c0dbc64b70af90fd698a233a518aa5d07e595d983b8c0526c8f7fb86866040516117af929190612ca5565b60405180910390a45b5050505050565b60008473ffffffffffffffffffffffffffffffffffffffff163b111561196b578373ffffffffffffffffffffffffffffffffffffffff1663f23a6e6187878686866040518663ffffffff1660e01b8152600401611820959493929190612d31565b6020604051808303816000875af192505050801561185c57506040513d601f19601f820116820180604052508101906118599190612da0565b60015b6118e0573d806000811461188c576040519150601f19603f3d011682016040523d82523d6000602084013e611891565b606091505b5060008151036118d857846040517f57f447ce0000000000000000000000000000000000000000000000000000000081526004016118cf919061246f565b60405180910390fd5b805160208201fd5b63f23a6e6160e01b7bffffffffffffffffffffffffffffffffffffffffffffffffffffffff1916817bffffffffffffffffffffffffffffffffffffffffffffffffffffffff19161461196957846040517f57f447ce000000000000000000000000000000000000000000000000000000008152600401611960919061246f565b60405180910390fd5b505b505050505050565b60008473ffffffffffffffffffffffffffffffffffffffff163b1115611b1f578373ffffffffffffffffffffffffffffffffffffffff1663bc197c8187878686866040518663ffffffff1660e01b81526004016119d4959493929190612dcd565b6020604051808303816000875af1925050508015611a1057506040513d601f19601f82011682018060405250810190611a0d9190612da0565b60015b611a94573d8060008114611a40576040519150601f19603f3d011682016040523d82523d6000602084013e611a45565b606091505b506000815103611a8c57846040517f57f447ce000000000000000000000000000000000000000000000000000000008152600401611a83919061246f565b60405180910390fd5b805160208201fd5b63bc197c8160e01b7bffffffffffffffffffffffffffffffffffffffffffffffffffffffff1916817bffffffffffffffffffffffffffffffffffffffffffffffffffffffff191614611b1d57846040517f57f447ce000000000000000000000000000000000000000000000000000000008152600401611b14919061246f565b60405180910390fd5b505b505050505050565b6000604051905090565b600080fd5b600080fd5b600073ffffffffffffffffffffffffffffffffffffffff82169050919050565b6000611b6682611b3b565b9050919050565b611b7681611b5b565b8114611b8157600080fd5b50565b600081359050611b9381611b6d565b92915050565b6000819050919050565b611bac81611b99565b8114611bb757600080fd5b50565b600081359050611bc981611ba3565b92915050565b60008060408385031215611be657611be5611b31565b5b6000611bf485828601611b84565b9250506020611c0585828601611bba565b9150509250929050565b611c1881611b99565b82525050565b6000602082019050611c336000830184611c0f565b92915050565b60007fffffffff0000000000000000000000000000000000000000000000000000000082169050919050565b611c6e81611c39565b8114611c7957600080fd5b50565b600081359050611c8b81611c65565b92915050565b600060208284031215611ca757611ca6611b31565b5b6000611cb584828501611c7c565b91505092915050565b60008115159050919050565b611cd381611cbe565b82525050565b6000602082019050611cee6000830184611cca565b92915050565b600060208284031215611d0a57611d09611b31565b5b6000611d1884828501611bba565b91505092915050565b600081519050919050565b600082825260208201905092915050565b60005b83811015611d5b578082015181840152602081019050611d40565b60008484015250505050565b6000601f19601f8301169050919050565b6000611d8382611d21565b611d8d8185611d2c565b9350611d9d818560208601611d3d565b611da681611d67565b840191505092915050565b60006020820190508181036000830152611dcb8184611d78565b905092915050565b600080fd5b7f4e487b7100000000000000000000000000000000000000000000000000000000600052604160045260246000fd5b611e1082611d67565b810181811067ffffffffffffffff82111715611e2f57611e2e611dd8565b5b80604052505050565b6000611e42611b27565b9050611e4e8282611e07565b919050565b600067ffffffffffffffff821115611e6e57611e6d611dd8565b5b602082029050602081019050919050565b600080fd5b6000611e97611e9284611e53565b611e38565b90508083825260208201905060208402830185811115611eba57611eb9611e7f565b5b835b81811015611ee35780611ecf8882611bba565b845260208401935050602081019050611ebc565b5050509392505050565b600082601f830112611f0257611f01611dd3565b5b8135611f12848260208601611e84565b91505092915050565b600080fd5b600067ffffffffffffffff821115611f3b57611f3a611dd8565b5b611f4482611d67565b9050602081019050919050565b82818337600083830152505050565b6000611f73611f6e84611f20565b611e38565b905082815260208101848484011115611f8f57611f8e611f1b565b5b611f9a848285611f51565b509392505050565b600082601f830112611fb757611fb6611dd3565b5b8135611fc7848260208601611f60565b91505092915050565b600080600080600060a08688031215611fec57611feb611b31565b5b6000611ffa88828901611b84565b955050602061200b88828901611b84565b945050604086013567ffffffffffffffff81111561202c5761202b611b36565b5b61203888828901611eed565b935050606086013567ffffffffffffffff81111561205957612058611b36565b5b61206588828901611eed565b925050608086013567ffffffffffffffff81111561208657612085611b36565b5b61209288828901611fa2565b9150509295509295909350565b600080fd5b60008083601f8401126120ba576120b9611dd3565b5b8235905067ffffffffffffffff8111156120d7576120d661209f565b5b6020830191508360018202830111156120f3576120f2611e7f565b5b9250929050565b60008060008060006060868803121561211657612115611b31565b5b600061212488828901611bba565b955050602086013567ffffffffffffffff81111561214557612144611b36565b5b612151888289016120a4565b9450945050604086013567ffffffffffffffff81111561217457612173611b36565b5b612180888289016120a4565b92509250509295509295909350565b60008083601f8401126121a5576121a4611dd3565b5b8235905067ffffffffffffffff8111156121c2576121c161209f565b5b6020830191508360208202830111156121de576121dd611e7f565b5b9250929050565b6000806000604084860312156121fe576121fd611b31565b5b600061220c86828701611b84565b935050602084013567ffffffffffffffff81111561222d5761222c611b36565b5b6122398682870161218f565b92509250509250925092565b600067ffffffffffffffff8211156122605761225f611dd8565b5b602082029050602081019050919050565b600061228461227f84612245565b611e38565b905080838252602082019050602084028301858111156122a7576122a6611e7f565b5b835b818110156122d057806122bc8882611b84565b8452602084019350506020810190506122a9565b5050509392505050565b600082601f8301126122ef576122ee611dd3565b5b81356122ff848260208601612271565b91505092915050565b6000806040838503121561231f5761231e611b31565b5b600083013567ffffffffffffffff81111561233d5761233c611b36565b5b612349858286016122da565b925050602083013567ffffffffffffffff81111561236a57612369611b36565b5b61237685828601611eed565b9150509250929050565b600081519050919050565b600082825260208201905092915050565b6000819050602082019050919050565b6123b581611b99565b82525050565b60006123c783836123ac565b60208301905092915050565b6000602082019050919050565b60006123eb82612380565b6123f5818561238b565b93506124008361239c565b8060005b8381101561243157815161241888826123bb565b9750612423836123d3565b925050600181019050612404565b5085935050505092915050565b6000602082019050818103600083015261245881846123e0565b905092915050565b61246981611b5b565b82525050565b60006020820190506124846000830184612460565b92915050565b600060408201905081810360008301526124a48185611d78565b905081810360208301526124b88184611d78565b90509392505050565b6124ca81611cbe565b81146124d557600080fd5b50565b6000813590506124e7816124c1565b92915050565b6000806040838503121561250457612503611b31565b5b600061251285828601611b84565b9250506020612523858286016124d8565b9150509250929050565b6000806040838503121561254457612543611b31565b5b600061255285828601611b84565b925050602061256385828601611b84565b9150509250929050565b600080600080600060a0868803121561258957612588611b31565b5b600061259788828901611b84565b95505060206125a888828901611b84565b94505060406125b988828901611bba565b93505060606125ca88828901611bba565b925050608086013567ffffffffffffffff8111156125eb576125ea611b36565b5b6125f788828901611fa2565b9150509295509295909350565b60006020828403121561261a57612619611b31565b5b600061262884828501611b84565b91505092915050565b600081905092915050565b600061264782611d21565b6126518185612631565b9350612661818560208601611d3d565b80840191505092915050565b7f2e6a736f6e000000000000000000000000000000000000000000000000000000600082015250565b60006126a3600583612631565b91506126ae8261266d565b600582019050919050565b60006126c5828561263c565b91506126d1828461263c565b91506126dc82612696565b91508190509392505050565b7f536f756c626f756e643a207472616e736665722064697361626c656400000000600082015250565b600061271e601c83611d2c565b9150612729826126e8565b602082019050919050565b6000602082019050818103600083015261274d81612711565b9050919050565b7f4e487b7100000000000000000000000000000000000000000000000000000000600052602260045260246000fd5b6000600282049050600182168061279b57607f821691505b6020821081036127ae576127ad612754565b5b50919050565b60008190508160005260206000209050919050565b60006020601f8301049050919050565b600082821b905092915050565b6000600883026128167fffffffffffffffffffffffffffffffffffffffffffffffffffffffffffffffff826127d9565b61282086836127d9565b95508019841693508086168417925050509392505050565b6000819050919050565b600061285d61285861285384611b99565b612838565b611b99565b9050919050565b6000819050919050565b61287783612842565b61288b61288382612864565b8484546127e6565b825550505050565b600090565b6128a0612893565b6128ab81848461286e565b505050565b5b818110156128cf576128c4600082612898565b6001810190506128b1565b5050565b601f821115612914576128e5816127b4565b6128ee846127c9565b810160208510156128fd578190505b612911612909856127c9565b8301826128b0565b50505b505050565b600082821c905092915050565b600061293760001984600802612919565b1980831691505092915050565b60006129508383612926565b9150826002028217905092915050565b61296982611d21565b67ffffffffffffffff81111561298257612981611dd8565b5b61298c8254612783565b6129978282856128d3565b600060209050601f8311600181146129ca57600084156129b8578287015190505b6129c28582612944565b865550612a2a565b601f1984166129d8866127b4565b60005b82811015612a00578489015182556001820191506020850194506020810190506129db565b86831015612a1d5784890151612a19601f891682612926565b8355505b6001600288020188555050505b505050505050565b7f4e487b7100000000000000000000000000000000000000000000000000000000600052603260045260246000fd5b7f416c726561647920686173206f6e65206f662062616467657300000000000000600082015250565b6000612a97601983611d2c565b9150612aa282612a61565b602082019050919050565b60006020820190508181036000830152612ac681612a8a565b9050919050565b6000604082019050612ae26000830185611c0f565b612aef6020830184611c0f565b9392505050565b7f536f756c626f756e643a20617070726f76616c2064697361626c656400000000600082015250565b6000612b2c601c83611d2c565b9150612b3782612af6565b602082019050919050565b60006020820190508181036000830152612b5b81612b1f565b9050919050565b7f416c726561647920686173207468697320626164676500000000000000000000600082015250565b6000612b98601683611d2c565b9150612ba382612b62565b602082019050919050565b60006020820190508181036000830152612bc781612b8b565b9050919050565b7f4e487b7100000000000000000000000000000000000000000000000000000000600052601260045260246000fd5b6000608082019050612c126000830187612460565b612c1f6020830186611c0f565b612c2c6040830185611c0f565b612c396060830184611c0f565b95945050505050565b7f4e487b7100000000000000000000000000000000000000000000000000000000600052601160045260246000fd5b6000612c7c82611b99565b9150612c8783611b99565b9250828201905080821115612c9f57612c9e612c42565b5b92915050565b60006040820190508181036000830152612cbf81856123e0565b90508181036020830152612cd381846123e0565b90509392505050565b600081519050919050565b600082825260208201905092915050565b6000612d0382612cdc565b612d0d8185612ce7565b9350612d1d818560208601611d3d565b612d2681611d67565b840191505092915050565b600060a082019050612d466000830188612460565b612d536020830187612460565b612d606040830186611c0f565b612d6d6060830185611c0f565b8181036080830152612d7f8184612cf8565b90509695505050505050565b600081519050612d9a81611c65565b92915050565b600060208284031215612db657612db5611b31565b5b6000612dc484828501612d8b565b91505092915050565b600060a082019050612de26000830188612460565b612def6020830187612460565b8181036040830152612e0181866123e0565b90508181036060830152612e1581856123e0565b90508181036080830152612e298184612cf8565b9050969550505050505056fea2646970667358221220307cdf9f7a5e3aecd491ee5ca09b5f775610f8c55cfd05f13aa59df3011a4e6a64736f6c634300081c0033",
  "linkReferences": {},
  "deployedLinkReferences": {}
}