{
  "_format": "hh-sol-artifact-1",
  "contractName": "BadgeNFT",
  "sourceName": "contracts/BadgeNFT.sol",
  "abi": [
    {
      "inputs": [
        {
          "internalType": "string",
          "name": "baseUri",
          "type": "string"
        }
      ],
      "stateMutability": "nonpayable",
      "type": "constructor"
    },
    {
      "inputs": [
        {
          "internalType": "address",
          "name": "sender",
          "type": "address"
        },
        {
          "internalType": "uint256",
          "name": "balance",
          "type": "uint256"
        },
        {
          "internalType": "uint256",
          "name": "needed",
          "type": "uint256"
        },
        {
          "internalType": "uint256",
          "name": "tokenId",
          "type": "uint256"
        }
      ],
      "name": "ERC1155InsufficientBalance",
      "type": "error"
    },
    {
      "inputs": [
        {
          "internalType": "address",
          "name": "approver",
          "type": "address"
        }
      ],
      "name": "ERC1155InvalidApprover",
      "type": "error"
    },
    {
      "inputs": [
        {
          "internalType": "uint256",
          "name": "idsLength",
          "type": "uint256"
        },
        {
          "internalType": "uint256",
          "name": "valuesLength",
          "type": "uint256"
        }
      ],
      "name": "ERC1155InvalidArrayLength",
      "type": "error"
    },
    {
      "inputs": [
        {
          "internalType": "address",
          "name": "operator",
          "type": "address"
        }
      ],
      "name": "ERC1155InvalidOperator",
      "type": "error"
    },
    {
      "inputs": [
        {
          "internalType": "address",
          "name": "receiver",
          "type": "address"
        }
      ],
      "name": "ERC1155InvalidReceiver",
      "type": "error"
    },
    {
      "inputs": [
        {
          "internalType": "address",
          "name": "sender",
          "type": "address"
        }
      ],
      "name": "ERC1155InvalidSender",
      "type": "error"
    },
    {
      "inputs": [
        {
          "internalType": "address",
          "name": "operator",
          "type": "address"
        },
        {
          "internalType": "address",
          "name": "owner",
          "type": "address"
        }
      ],
      "name": "ERC1155MissingApprovalForAll",
      "type": "error"
    },
    {
      "inputs": [
        {
          "internalType": "address",
          "name": "owner",
          "type": "address"
        }
      ],
      "name": "OwnableInvalidOwner",
      "type": "error"
    },
    {
      "inputs": [
        {
          "internalType": "address",
          "name": "account",
          "type": "address"
        }
      ],
      "name": "OwnableUnauthorizedAccount",
      "type": "error"
    },
    {
      "anonymous": false,
      "inputs": [
        {
          "indexed": true,
          "internalType": "address",
          "name": "account",
          "type": "address"
        },
        {
          "indexed": true,
          "internalType": "address",
          "name": "operator",
          "type": "address"
        },
        {
          "indexed": false,
          "internalType": "bool",
          "name": "approved",
          "type": "bool"
        }
      ],
      "name": "ApprovalForAll",
      "type": "event"
    },
    {
      "anonymous": false,
      "inputs": [
        {
          "indexed": true,
          "internalType": "address",
          "name": "previousOwner",
          "type": "address"
        },
        {
          "indexed": true,
          "internalType": "address",
          "name": "newOwner",
          "type": "address"
        }
      ],
      "name": "OwnershipTransferred",
      "type": "event"
    },
    {
      "anonymous": false,
      "inputs": [
        {
          "indexed": true,
          "internalType": "address",
          "name": "operator",
          "type": "address"
        },
        {
          "indexed": true,
          "internalType": "address",
          "name": "from",
          "type": "address"
        },
        {
          "indexed": true,
          "internalType": "address",
          "name": "to",
          "type": "address"
        },
        {
          "indexed": false,
          "internalType": "uint256[]",
          "name": "ids",
          "type": "uint256[]"
        },
        {
          "indexed": false,
          "internalType": "uint256[]",
          "name": "values",
          "type": "uint256[]"
        }
      ],
      "name": "TransferBatch",
      "type": "event"
    },
    {
      "anonymous": false,
      "inputs": [
        {
          "indexed": true,
          "internalType": "address",
          "name": "operator",
          "type": "address"
        },
        {
          "indexed": true,
          "internalType": "address",
          "name": "from",
          "type": "address"
        },
        {
          "indexed": true,
          "internalType": "address",
          "name": "to",
          "type": "address"
        },
        {
          "indexed": false,
          "internalType": "uint256",
          "name": "id",
          "type": "uint256"
        },
        {
          "indexed": false,
          "internalType": "uint256",
          "name": "value",
          "type": "uint256"
        }
      ],
      "name": "TransferSingle",
      "type": "event"
    },
    {
      "anonymous": false,
      "inputs": [
        {
          "indexed": false,
          "internalType": "string",
          "name": "value",
          "type": "string"
        },
        {
          "indexed": true,
          "internalType": "uint256",
          "name": "id",
          "type": "uint256"
        }
      ],
      "name": "URI",
      "type": "event"
    },
    {
      "inputs": [
        {
          "internalType": "uint256",
          "name": "",
          "type": "uint256"
        }
      ],
      "name": "badges",
      "outputs": [
        {
          "internalType": "string",
          "name": "name",
          "type": "string"
        },
        {
          "internalType": "string",
          "name": "description",
          "type": "string"
        }
      ],
      "stateMutability": "view",
      "type": "function"
    },
    {
      "inputs": [
        {
          "internalType": "address",
          "name": "account",
          "type": "address"
        },
        {
          "internalType": "uint256",
          "name": "id",
          "type": "uint256"
        }
      ],
      "name": "balanceOf",
      "outputs": [
        {
          "internalType": "uint256",
          "name": "",
          "type": "uint256"
        }
      ],
      "stateMutability": "view",
      "type": "function"
    },
    {
      "inputs": [
        {
          "internalType": "address[]",
          "name": "accounts",
          "type": "address[]"
        },
        {
          "internalType": "uint256[]",
          "name": "ids",
          "type": "uint256[]"
        }
      ],
      "name": "balanceOfBatch",
      "outputs": [
        {
          "internalType": "uint256[]",
          "name": "",
          "type": "uint256[]"
        }
      ],
      "stateMutability": "view",
      "type": "function"
    },
    {
      "inputs": [
        {
          "internalType": "address",
          "name": "",
          "type": "address"
        },
        {
          "internalType": "uint256",
          "name": "",
          "type": "uint256"
        }
      ],
      "name": "hasBadge",
      "outputs": [
        {
          "internalType": "bool",
          "name": "",
          "type": "bool"
        }
      ],
      "stateMutability": "view",
      "type": "function"
    },
    {
      "inputs": [
        {
          "internalType": "address",
          "name": "account",
          "type": "address"
        },
        {
          "internalType": "address",
          "name": "operator",
          "type": "address"
        }
      ],
      "name": "isApprovedForAll",
      "outputs": [
        {
          "internalType": "bool",
          "name": "",
          "type": "bool"
        }
      ],
      "stateMutability": "view",
      "type": "function"
    },
    {
      "inputs": [
        {
          "internalType": "address",
          "name": "to",
          "type": "address"
        },
        {
          "internalType": "uint256",
          "name": "tokenId",
          "type": "uint256"
        }
      ],
      "name": "mintBadge",
      "outputs": [],
      "stateMutability": "nonpayable",
      "type": "function"
    },
    {
      "inputs": [
        {
          "internalType": "address",
          "name": "to",
          "type": "address"
        },
        {
          "internalType": "uint256[]",
          "name": "tokenIds",
          "type": "uint256[]"
        }
      ],
      "name": "mintBatchBadges",
      "outputs": [],
      "stateMutability": "nonpayable",
      "type": "function"
    },
    {
      "inputs": [],
      "name": "owner",
      "outputs": [
        {
          "internalType": "address",
          "name": "",
          "type": "address"
        }
      ],
      "stateMutability": "view",
      "type": "function"
    },
    {
      "inputs": [],
      "name": "renounceOwnership",
      "outputs": [],
      "stateMutability": "nonpayable",
      "type": "function"
    },
    {
      "inputs": [
        {
          "internalType": "address",
          "name": "",
          "type": "address"
        },
        {
          "internalType": "address",
          "name": "",
          "type": "address"
        },
        {
          "internalType": "uint256[]",
          "name": "",
          "type": "uint256[]"
        },
        {
          "internalType": "uint256[]",
          "name": "",
          "type": "uint256[]"
        },
        {
          "internalType": "bytes",
          "name": "",
          "type": "bytes"
        }
      ],
      "name": "safeBatchTransferFrom",
      "outputs": [],
      "stateMutability": "nonpayable",
      "type": "function"
    },
    {
      "inputs": [
        {
          "internalType": "address",
          "name": "",
          "type": "address"
        },
        {
          "internalType": "address",
          "name": "",
          "type": "address"
        },
        {
          "internalType": "uint256",
          "name": "",
          "type": "uint256"
        },
        {
          "internalType": "uint256",
          "name": "",
          "type": "uint256"
        },
        {
          "internalType": "bytes",
          "name": "",
          "type": "bytes"
        }
      ],
      "name": "safeTransferFrom",
      "outputs": [],
      "stateMutability": "nonpayable",
      "type": "function"
    },
    {
      "inputs": [
        {
          "internalType": "address",
          "name": "",
          "type": "address"
        },
        {
          "internalType": "bool",
          "name": "",
          "type": "bool"
        }
      ],
      "name": "setApprovalForAll",
      "outputs": [],
      "stateMutability": "nonpayable",
      "type": "function"
    },
    {
      "inputs": [
        {
          "internalType": "uint256",
          "name": "tokenId",
          "type": "uint256"
        },
        {
          "internalType": "string",
          "name": "name",
          "type": "string"
        },
        {
          "internalType": "string",
          "name": "description",
          "type": "string"
        }
      ],
      "name": "setBadgeInfo",
      "outputs": [],
      "stateMutability": "nonpayable",
      "type": "function"
    },
    {
      "inputs": [
        {
          "internalType": "bytes4",
          "name": "interfaceId",
          "type": "bytes4"
        }
      ],
      "name": "supportsInterface",
      "outputs": [
        {
          "internalType": "bool",
          "name": "",
          "type": "bool"
        }
      ],
      "stateMutability": "view",
      "type": "function"
    },
    {
      "inputs": [
        {
          "internalType": "address",
          "name": "newOwner",
          "type": "address"
        }
      ],
      "name": "transferOwnership",
      "outputs": [],
      "stateMutability": "nonpayable",
      "type": "function"
    },
    {
      "inputs": [
        {
          "internalType": "uint256",
          "name": "",
          "type": "uint256"
        }
      ],
      "name": "uri",
      "outputs": [
        {
          "internalType": "string",
          "name": "",
          "type": "string"
        }
      ],
      "stateMutability": "view",
      "type": "function"
    }
  ],
  "bytecode": "0x608060405234801561001057600080fd5b506040516131ea3803806131ea8339818101604052810190610032919061031a565b3381610043816100cc60201b60201c565b50600073ffffffffffffffffffffffffffffffffffffffff168173ffffffffffffffffffffffffffffffffffffffff16036100b65760006040517f1e4fbdf70000000000000000000000000000000000000000000000000000000081526004016100ad91906103a4565b60405180910390fd5b6100c5816100df60201b60201c565b50506106b2565b80600290816100db91906105e0565b5050565b6000600360009054906101000a900473ffffffffffffffffffffffffffffffffffffffff16905081600360006101000a81548173ffffffffffffffffffffffffffffffffffffffff021916908373ffffffffffffffffffffffffffffffffffffffff1602179055508173ffffffffffffffffffffffffffffffffffffffff168173ffffffffffffffffffffffffffffffffffffffff167f8be0079c531659141344cd1fd0a4f28419497f9722a3daafe3b4186f6b6457e060405160405180910390a35050565b6000604051905090565b600080fd5b600080fd5b600080fd5b600080fd5b6000601f19601f8301169050919050565b7f4e487b7100000000000000000000000000000000000000000000000000000000600052604160045260246000fd5b61020c826101c3565b810181811067ffffffffffffffff8211171561022b5761022a6101d4565b5b80604052505050565b600061023e6101a5565b905061024a8282610203565b919050565b600067ffffffffffffffff82111561026a576102696101d4565b5b610273826101c3565b9050602081019050919050565b60005b8381101561029e578082015181840152602081019050610283565b60008484015250505050565b60006102bd6102b88461024f565b610234565b9050828152602081018484840111156102d9576102d86101be565b5b6102e4848285610280565b509392505050565b600082601f830112610301576103006101b9565b5b81516103118482602086016102aa565b91505092915050565b6000602082840312156103305761032f6101af565b5b600082015167ffffffffffffffff81111561034e5761034d6101b4565b5b61035a848285016102ec565b91505092915050565b600073ffffffffffffffffffffffffffffffffffffffff82169050919050565b600061038e82610363565b9050919050565b61039e81610383565b82525050565b60006020820190506103b96000830184610395565b92915050565b600081519050919050565b7f4e487b7100000000000000000000000000000000000000000000000000000000600052602260045260246000fd5b6000600282049050600182168061041157607f821691505b602082108103610424576104236103ca565b5b50919050565b60008190508160005260206000209050919050565b60006020601f8301049050919050565b600082821b905092915050565b60006008830261048c7fffffffffffffffffffffffffffffffffffffffffffffffffffffffffffffffff8261044f565b610496868361044f565b95508019841693508086168417925050509392505050565b6000819050919050565b6000819050919050565b60006104dd6104d86104d3846104ae565b6104b8565b6104ae565b9050919050565b6000819050919050565b6104f7836104c2565b61050b610503826104e4565b84845461045c565b825550505050565b600090565b610520610513565b61052b8184846104ee565b505050565b5b8181101561054f57610544600082610518565b600181019050610531565b5050565b601f821115610594576105658161042a565b61056e8461043f565b8101602085101561057d578190505b6105916105898561043f565b830182610530565b50505b505050565b600082821c905092915050565b60006105b760001984600802610599565b1980831691505092915050565b60006105d083836105a6565b9150826002028217905092915050565b6105e9826103bf565b67ffffffffffffffff811115610602576106016101d4565b5b61060c82546103f9565b610617828285610553565b600060209050601f83116001811461064a5760008415610638578287015190505b61064285826105c4565b8655506106aa565b601f1984166106588661042a565b60005b828110156106805784890151825560018201915060208501945060208101905061065b565b8683101561069d5784890151610699601f8916826105a6565b8355505b6001600288020188555050505b505050505050565b612b29806106c16000396000f3fe608060405234801561001057600080fd5b50600436106100ff5760003560e01c8063715018a611610097578063e42bff6611610066578063e42bff66146102bd578063e985e9c5146102d9578063f242432a14610309578063f2fde38b14610325576100ff565b8063715018a6146102485780638da5cb5b1461025257806398e36d8b14610270578063a22cb465146102a1576100ff565b806337378589116100d357806337378589146101b057806339d977dd146101cc5780634c6a70ce146101e85780634e1273f414610218576100ff565b8062fdd58e1461010457806301ffc9a7146101345780630e89341c146101645780632eb2c2d614610194575b600080fd5b61011e60048036038101906101199190611973565b610341565b60405161012b91906119c2565b60405180910390f35b61014e60048036038101906101499190611a35565b61039b565b60405161015b9190611a7d565b60405180910390f35b61017e60048036038101906101799190611a98565b61047d565b60405161018b9190611b55565b60405180910390f35b6101ae60048036038101906101a99190611d74565b610511565b005b6101ca60048036038101906101c59190611e9e565b61054c565b005b6101e660048036038101906101e19190611f89565b61063a565b005b61020260048036038101906101fd9190611973565b61086a565b60405161020f9190611a7d565b60405180910390f35b610232600480360381019061022d91906120ac565b610899565b60405161023f91906121e2565b60405180910390f35b6102506109a2565b005b61025a6109b6565b6040516102679190612213565b60405180910390f35b61028a60048036038101906102859190611a98565b6109e0565b60405161029892919061222e565b60405180910390f35b6102bb60048036038101906102b69190612291565b610b14565b005b6102d760048036038101906102d29190611973565b610b4f565b005b6102f360048036038101906102ee91906122d1565b610c7e565b6040516103009190611a7d565b60405180910390f35b610323600480360381019061031e9190612311565b610d12565b005b61033f600480360381019061033a91906123a8565b610d4d565b005b600080600083815260200190815260200160002060008473ffffffffffffffffffffffffffffffffffffffff1673ffffffffffffffffffffffffffffffffffffffff16815260200190815260200160002054905092915050565b60007fd9b67a26000000000000000000000000000000000000000000000000000000007bffffffffffffffffffffffffffffffffffffffffffffffffffffffff1916827bffffffffffffffffffffffffffffffffffffffffffffffffffffffff1916148061046657507f0e89341c000000000000000000000000000000000000000000000000000000007bffffffffffffffffffffffffffffffffffffffffffffffffffffffff1916827bffffffffffffffffffffffffffffffffffffffffffffffffffffffff1916145b80610476575061047582610dd3565b5b9050919050565b60606002805461048c90612404565b80601f01602080910402602001604051908101604052809291908181526020018280546104b890612404565b80156105055780601f106104da57610100808354040283529160200191610505565b820191906000526020600020905b8154815290600101906020018083116104e857829003601f168201915b50505050509050919050565b6040517f08c379a000000000000000000000000000000000000000000000000000000000815260040161054390612481565b60405180910390fd5b610554610e3d565b604051806040016040528085858080601f016020809104026020016040519081016040528093929190818152602001838380828437600081840152601f19601f82011690508083019250505050505050815260200183838080601f016020809104026020016040519081016040528093929190818152602001838380828437600081840152601f19601f82011690508083019250505050505050815250600460008781526020019081526020016000206000820151816000019081610619919061264d565b50602082015181600101908161062f919061264d565b509050505050505050565b610642610e3d565b60008282905067ffffffffffffffff81111561066157610660611b7c565b5b60405190808252806020026020018201604052801561068f5781602001602082028036833780820191505090505b50905060005b8383905081101561080757600560008673ffffffffffffffffffffffffffffffffffffffff1673ffffffffffffffffffffffffffffffffffffffff16815260200190815260200160002060008585848181106106f4576106f361271f565b5b90506020020135815260200190815260200160002060009054906101000a900460ff1615610757576040517f08c379a000000000000000000000000000000000000000000000000000000000815260040161074e9061279a565b60405180910390fd5b6001600560008773ffffffffffffffffffffffffffffffffffffffff1673ffffffffffffffffffffffffffffffffffffffff16815260200190815260200160002060008686858181106107ad576107ac61271f565b5b90506020020135815260200190815260200160002060006101000a81548160ff02191690831515021790555060018282815181106107ee576107ed61271f565b5b6020026020010181815250508080600101915050610695565b5061086484848480806020026020016040519081016040528093929190818152602001838360200280828437600081840152601f19601f820116905080830192505050505050508360405180602001604052806000815250610ec4565b50505050565b60056020528160005260406000206020528060005260406000206000915091509054906101000a900460ff1681565b606081518351146108e557815183516040517f5b0599910000000000000000000000000000000000000000000000000000000081526004016108dc9291906127ba565b60405180910390fd5b6000835167ffffffffffffffff81111561090257610901611b7c565b5b6040519080825280602002602001820160405280156109305781602001602082028036833780820191505090505b50905060005b84518110156109975761096d6109558287610f4a90919063ffffffff16565b6109688387610f5e90919063ffffffff16565b610341565b8282815181106109805761097f61271f565b5b602002602001018181525050806001019050610936565b508091505092915050565b6109aa610e3d565b6109b46000610f72565b565b6000600360009054906101000a900473ffffffffffffffffffffffffffffffffffffffff16905090565b6004602052806000526040600020600091509050806000018054610a0390612404565b80601f0160208091040260200160405190810160405280929190818152602001828054610a2f90612404565b8015610a7c5780601f10610a5157610100808354040283529160200191610a7c565b820191906000526020600020905b815481529060010190602001808311610a5f57829003601f168201915b505050505090806001018054610a9190612404565b80601f0160208091040260200160405190810160405280929190818152602001828054610abd90612404565b8015610b0a5780601f10610adf57610100808354040283529160200191610b0a565b820191906000526020600020905b815481529060010190602001808311610aed57829003601f168201915b5050505050905082565b6040517f08c379a0000000000000000000000000000000000000000000000000000000008152600401610b469061282f565b60405180910390fd5b610b57610e3d565b600560008373ffffffffffffffffffffffffffffffffffffffff1673ffffffffffffffffffffffffffffffffffffffff168152602001908152602001600020600082815260200190815260200160002060009054906101000a900460ff1615610bf5576040517f08c379a0000000000000000000000000000000000000000000000000000000008152600401610bec9061289b565b60405180910390fd5b6001600560008473ffffffffffffffffffffffffffffffffffffffff1673ffffffffffffffffffffffffffffffffffffffff168152602001908152602001600020600083815260200190815260200160002060006101000a81548160ff021916908315150217905550610c7a8282600160405180602001604052806000815250611038565b5050565b6000600160008473ffffffffffffffffffffffffffffffffffffffff1673ffffffffffffffffffffffffffffffffffffffff16815260200190815260200160002060008373ffffffffffffffffffffffffffffffffffffffff1673ffffffffffffffffffffffffffffffffffffffff16815260200190815260200160002060009054906101000a900460ff16905092915050565b6040517f08c379a0000000000000000000000000000000000000000000000000000000008152600401610d4490612481565b60405180910390fd5b610d55610e3d565b600073ffffffffffffffffffffffffffffffffffffffff168173ffffffffffffffffffffffffffffffffffffffff1603610dc75760006040517f1e4fbdf7000000000000000000000000000000000000000000000000000000008152600401610dbe9190612213565b60405180910390fd5b610dd081610f72565b50565b60007f01ffc9a7000000000000000000000000000000000000000000000000000000007bffffffffffffffffffffffffffffffffffffffffffffffffffffffff1916827bffffffffffffffffffffffffffffffffffffffffffffffffffffffff1916149050919050565b610e456110d1565b73ffffffffffffffffffffffffffffffffffffffff16610e636109b6565b73ffffffffffffffffffffffffffffffffffffffff1614610ec257610e866110d1565b6040517f118cdaa7000000000000000000000000000000000000000000000000000000008152600401610eb99190612213565b60405180910390fd5b565b600073ffffffffffffffffffffffffffffffffffffffff168473ffffffffffffffffffffffffffffffffffffffff1603610f365760006040517f57f447ce000000000000000000000000000000000000000000000000000000008152600401610f2d9190612213565b60405180910390fd5b610f446000858585856110d9565b50505050565b600060208202602084010151905092915050565b600060208202602084010151905092915050565b6000600360009054906101000a900473ffffffffffffffffffffffffffffffffffffffff16905081600360006101000a81548173ffffffffffffffffffffffffffffffffffffffff021916908373ffffffffffffffffffffffffffffffffffffffff1602179055508173ffffffffffffffffffffffffffffffffffffffff168173ffffffffffffffffffffffffffffffffffffffff167f8be0079c531659141344cd1fd0a4f28419497f9722a3daafe3b4186f6b6457e060405160405180910390a35050565b600073ffffffffffffffffffffffffffffffffffffffff168473ffffffffffffffffffffffffffffffffffffffff16036110aa5760006040517f57f447ce0000000000000000000000000000000000000000000000000000000081526004016110a19190612213565b60405180910390fd5b6000806110b7858561118b565b915091506110c96000878484876110d9565b505050505050565b600033905090565b6110e5858585856111bb565b600073ffffffffffffffffffffffffffffffffffffffff168473ffffffffffffffffffffffffffffffffffffffff16146111845760006111236110d1565b90506001845103611173576000611144600086610f5e90919063ffffffff16565b9050600061115c600086610f5e90919063ffffffff16565b905061116c838989858589611563565b5050611182565b611181818787878787611717565b5b505b5050505050565b60608060405191506001825283602083015260408201905060018152826020820152604081016040529250929050565b805182511461120557815181516040517f5b0599910000000000000000000000000000000000000000000000000000000081526004016111fc9291906127ba565b60405180910390fd5b600061120f6110d1565b905060005b835181101561141e5760006112328286610f5e90919063ffffffff16565b905060006112498386610f5e90919063ffffffff16565b9050600073ffffffffffffffffffffffffffffffffffffffff168873ffffffffffffffffffffffffffffffffffffffff161461137657600080600084815260200190815260200160002060008a73ffffffffffffffffffffffffffffffffffffffff1673ffffffffffffffffffffffffffffffffffffffff1681526020019081526020016000205490508181101561131e57888183856040517f03dee4c500000000000000000000000000000000000000000000000000000000815260040161131594939291906128bb565b60405180910390fd5b81810360008085815260200190815260200160002060008b73ffffffffffffffffffffffffffffffffffffffff1673ffffffffffffffffffffffffffffffffffffffff16815260200190815260200160002081905550505b600073ffffffffffffffffffffffffffffffffffffffff168773ffffffffffffffffffffffffffffffffffffffff1614611411578060008084815260200190815260200160002060008973ffffffffffffffffffffffffffffffffffffffff1673ffffffffffffffffffffffffffffffffffffffff1681526020019081526020016000206000828254611409919061292f565b925050819055505b5050806001019050611214565b5060018351036114dd57600061143e600085610f5e90919063ffffffff16565b90506000611456600085610f5e90919063ffffffff16565b90508573ffffffffffffffffffffffffffffffffffffffff168773ffffffffffffffffffffffffffffffffffffffff168473ffffffffffffffffffffffffffffffffffffffff167fc3d58168c5ae7397731d063d5bbf3d657854427343f4c083240f7aacaa2d0f6285856040516114ce9291906127ba565b60405180910390a4505061155c565b8373ffffffffffffffffffffffffffffffffffffffff168573ffffffffffffffffffffffffffffffffffffffff168273ffffffffffffffffffffffffffffffffffffffff167f4a39dc06d4c0dbc64b70af90fd698a233a518aa5d07e595d983b8c0526c8f7fb8686604051611553929190612963565b60405180910390a45b5050505050565b60008473ffffffffffffffffffffffffffffffffffffffff163b111561170f578373ffffffffffffffffffffffffffffffffffffffff1663f23a6e6187878686866040518663ffffffff1660e01b81526004016115c49594939291906129ef565b6020604051808303816000875af192505050801561160057506040513d601f19601f820116820180604052508101906115fd9190612a5e565b60015b611684573d8060008114611630576040519150601f19603f3d011682016040523d82523d6000602084013e611635565b606091505b50600081510361167c57846040517f57f447ce0000000000000000000000000000000000000000000000000000000081526004016116739190612213565b60405180910390fd5b805160208201fd5b63f23a6e6160e01b7bffffffffffffffffffffffffffffffffffffffffffffffffffffffff1916817bffffffffffffffffffffffffffffffffffffffffffffffffffffffff19161461170d57846040517f57f447ce0000000000000000000000000000000000000000000000000000000081526004016117049190612213565b60405180910390fd5b505b505050505050565b60008473ffffffffffffffffffffffffffffffffffffffff163b11156118c3578373ffffffffffffffffffffffffffffffffffffffff1663bc197c8187878686866040518663ffffffff1660e01b8152600401611778959493929190612a8b565b6020604051808303816000875af19250505080156117b457506040513d601f19601f820116820180604052508101906117b19190612a5e565b60015b611838573d80600081146117e4576040519150601f19603f3d011682016040523d82523d6000602084013e6117e9565b606091505b50600081510361183057846040517f57f447ce0000000000000000000000000000000000000000000000000000000081526004016118279190612213565b60405180910390fd5b805160208201fd5b63bc197c8160e01b7bffffffffffffffffffffffffffffffffffffffffffffffffffffffff1916817bffffffffffffffffffffffffffffffffffffffffffffffffffffffff1916146118c157846040517f57f447ce0000000000000000000000000000000000000000000000000000000081526004016118b89190612213565b60405180910390fd5b505b505050505050565b6000604051905090565b600080fd5b600080fd5b600073ffffffffffffffffffffffffffffffffffffffff82169050919050565b600061190a826118df565b9050919050565b61191a816118ff565b811461192557600080fd5b50565b60008135905061193781611911565b92915050565b6000819050919050565b6119508161193d565b811461195b57600080fd5b50565b60008135905061196d81611947565b92915050565b6000806040838503121561198a576119896118d5565b5b600061199885828601611928565b92505060206119a98582860161195e565b9150509250929050565b6119bc8161193d565b82525050565b60006020820190506119d760008301846119b3565b92915050565b60007fffffffff0000000000000000000000000000000000000000000000000000000082169050919050565b611a12816119dd565b8114611a1d57600080fd5b50565b600081359050611a2f81611a09565b92915050565b600060208284031215611a4b57611a4a6118d5565b5b6000611a5984828501611a20565b91505092915050565b60008115159050919050565b611a7781611a62565b82525050565b6000602082019050611a926000830184611a6e565b92915050565b600060208284031215611aae57611aad6118d5565b5b6000611abc8482850161195e565b91505092915050565b600081519050919050565b600082825260208201905092915050565b60005b83811015611aff578082015181840152602081019050611ae4565b60008484015250505050565b6000601f19601f8301169050919050565b6000611b2782611ac5565b611b318185611ad0565b9350611b41818560208601611ae1565b611b4a81611b0b565b840191505092915050565b60006020820190508181036000830152611b6f8184611b1c565b905092915050565b600080fd5b7f4e487b7100000000000000000000000000000000000000000000000000000000600052604160045260246000fd5b611bb482611b0b565b810181811067ffffffffffffffff82111715611bd357611bd2611b7c565b5b80604052505050565b6000611be66118cb565b9050611bf28282611bab565b919050565b600067ffffffffffffffff821115611c1257611c11611b7c565b5b602082029050602081019050919050565b600080fd5b6000611c3b611c3684611bf7565b611bdc565b90508083825260208201905060208402830185811115611c5e57611c5d611c23565b5b835b81811015611c875780611c73888261195e565b845260208401935050602081019050611c60565b5050509392505050565b600082601f830112611ca657611ca5611b77565b5b8135611cb6848260208601611c28565b91505092915050565b600080fd5b600067ffffffffffffffff821115611cdf57611cde611b7c565b5b611ce882611b0b565b9050602081019050919050565b82818337600083830152505050565b6000611d17611d1284611cc4565b611bdc565b905082815260208101848484011115611d3357611d32611cbf565b5b611d3e848285611cf5565b509392505050565b600082601f830112611d5b57611d5a611b77565b5b8135611d6b848260208601611d04565b91505092915050565b600080600080600060a08688031215611d9057611d8f6118d5565b5b6000611d9e88828901611928565b9550506020611daf88828901611928565b945050604086013567ffffffffffffffff811115611dd057611dcf6118da565b5b611ddc88828901611c91565b935050606086013567ffffffffffffffff811115611dfd57611dfc6118da565b5b611e0988828901611c91565b925050608086013567ffffffffffffffff811115611e2a57611e296118da565b5b611e3688828901611d46565b9150509295509295909350565b600080fd5b60008083601f840112611e5e57611e5d611b77565b5b8235905067ffffffffffffffff811115611e7b57611e7a611e43565b5b602083019150836001820283011115611e9757611e96611c23565b5b9250929050565b600080600080600060608688031215611eba57611eb96118d5565b5b6000611ec88882890161195e565b955050602086013567ffffffffffffffff811115611ee957611ee86118da565b5b611ef588828901611e48565b9450945050604086013567ffffffffffffffff811115611f1857611f176118da565b5b611f2488828901611e48565b92509250509295509295909350565b60008083601f840112611f4957611f48611b77565b5b8235905067ffffffffffffffff811115611f6657611f65611e43565b5b602083019150836020820283011115611f8257611f81611c23565b5b9250929050565b600080600060408486031215611fa257611fa16118d5565b5b6000611fb086828701611928565b935050602084013567ffffffffffffffff811115611fd157611fd06118da565b5b611fdd86828701611f33565b92509250509250925092565b600067ffffffffffffffff82111561200457612003611b7c565b5b602082029050602081019050919050565b600061202861202384611fe9565b611bdc565b9050808382526020820190506020840283018581111561204b5761204a611c23565b5b835b8181101561207457806120608882611928565b84526020840193505060208101905061204d565b5050509392505050565b600082601f83011261209357612092611b77565b5b81356120a3848260208601612015565b91505092915050565b600080604083850312156120c3576120c26118d5565b5b600083013567ffffffffffffffff8111156120e1576120e06118da565b5b6120ed8582860161207e565b925050602083013567ffffffffffffffff81111561210e5761210d6118da565b5b61211a85828601611c91565b9150509250929050565b600081519050919050565b600082825260208201905092915050565b6000819050602082019050919050565b6121598161193d565b82525050565b600061216b8383612150565b60208301905092915050565b6000602082019050919050565b600061218f82612124565b612199818561212f565b93506121a483612140565b8060005b838110156121d55781516121bc888261215f565b97506121c783612177565b9250506001810190506121a8565b5085935050505092915050565b600060208201905081810360008301526121fc8184612184565b905092915050565b61220d816118ff565b82525050565b60006020820190506122286000830184612204565b92915050565b600060408201905081810360008301526122488185611b1c565b9050818103602083015261225c8184611b1c565b90509392505050565b61226e81611a62565b811461227957600080fd5b50565b60008135905061228b81612265565b92915050565b600080604083850312156122a8576122a76118d5565b5b60006122b685828601611928565b92505060206122c78582860161227c565b9150509250929050565b600080604083850312156122e8576122e76118d5565b5b60006122f685828601611928565b925050602061230785828601611928565b9150509250929050565b600080600080600060a0868803121561232d5761232c6118d5565b5b600061233b88828901611928565b955050602061234c88828901611928565b945050604061235d8882890161195e565b935050606061236e8882890161195e565b925050608086013567ffffffffffffffff81111561238f5761238e6118da565b5b61239b88828901611d46565b9150509295509295909350565b6000602082840312156123be576123bd6118d5565b5b60006123cc84828501611928565b91505092915050565b7f4e487b7100000000000000000000000000000000000000000000000000000000600052602260045260246000fd5b6000600282049050600182168061241c57607f821691505b60208210810361242f5761242e6123d5565b5b50919050565b7f536f756c626f756e643a207472616e736665722064697361626c656400000000600082015250565b600061246b601c83611ad0565b915061247682612435565b602082019050919050565b6000602082019050818103600083015261249a8161245e565b9050919050565b60008190508160005260206000209050919050565b60006020601f8301049050919050565b600082821b905092915050565b6000600883026125037fffffffffffffffffffffffffffffffffffffffffffffffffffffffffffffffff826124c6565b61250d86836124c6565b95508019841693508086168417925050509392505050565b6000819050919050565b600061254a6125456125408461193d565b612525565b61193d565b9050919050565b6000819050919050565b6125648361252f565b61257861257082612551565b8484546124d3565b825550505050565b600090565b61258d612580565b61259881848461255b565b505050565b5b818110156125bc576125b1600082612585565b60018101905061259e565b5050565b601f821115612601576125d2816124a1565b6125db846124b6565b810160208510156125ea578190505b6125fe6125f6856124b6565b83018261259d565b50505b505050565b600082821c905092915050565b600061262460001984600802612606565b1980831691505092915050565b600061263d8383612613565b9150826002028217905092915050565b61265682611ac5565b67ffffffffffffffff81111561266f5761266e611b7c565b5b6126798254612404565b6126848282856125c0565b600060209050601f8311600181146126b757600084156126a5578287015190505b6126af8582612631565b865550612717565b601f1984166126c5866124a1565b60005b828110156126ed578489015182556001820191506020850194506020810190506126c8565b8683101561270a5784890151612706601f891682612613565b8355505b6001600288020188555050505b505050505050565b7f4e487b7100000000000000000000000000000000000000000000000000000000600052603260045260246000fd5b7f416c726561647920686173206f6e65206f662062616467657300000000000000600082015250565b6000612784601983611ad0565b915061278f8261274e565b602082019050919050565b600060208201905081810360008301526127b381612777565b9050919050565b60006040820190506127cf60008301856119b3565b6127dc60208301846119b3565b9392505050565b7f536f756c626f756e643a20617070726f76616c2064697361626c656400000000600082015250565b6000612819601c83611ad0565b9150612824826127e3565b602082019050919050565b600060208201905081810360008301526128488161280c565b9050919050565b7f416c726561647920686173207468697320626164676500000000000000000000600082015250565b6000612885601683611ad0565b91506128908261284f565b602082019050919050565b600060208201905081810360008301526128b481612878565b9050919050565b60006080820190506128d06000830187612204565b6128dd60208301866119b3565b6128ea60408301856119b3565b6128f760608301846119b3565b95945050505050565b7f4e487b7100000000000000000000000000000000000000000000000000000000600052601160045260246000fd5b600061293a8261193d565b91506129458361193d565b925082820190508082111561295d5761295c612900565b5b92915050565b6000604082019050818103600083015261297d8185612184565b905081810360208301526129918184612184565b90509392505050565b600081519050919050565b600082825260208201905092915050565b60006129c18261299a565b6129cb81856129a5565b93506129db818560208601611ae1565b6129e481611b0b565b840191505092915050565b600060a082019050612a046000830188612204565b612a116020830187612204565b612a1e60408301866119b3565b612a2b60608301856119b3565b8181036080830152612a3d81846129b6565b90509695505050505050565b600081519050612a5881611a09565b92915050565b600060208284031215612a7457612a736118d5565b5b6000612a8284828501612a49565b91505092915050565b600060a082019050612aa06000830188612204565b612aad6020830187612204565b8181036040830152612abf8186612184565b90508181036060830152612ad38185612184565b90508181036080830152612ae781846129b6565b9050969550505050505056fea264697066735822122034fe43087dfa7971dbf05d7654ee80022ae9bb6c661a8fd8e884e3a773d8786164736f6c634300081c0033",
  "linkReferences": {},
  "deployedLinkReferences": {}
}