{
  "_format": "hh-sol-artifact-1",
  "contractName": "Donation",
  "sourceName": "contracts/Donation.sol",
  "abi": [
    {
      "anonymous": false,
      "inputs": [
        {
          "indexed": true,
          "internalType": "address",
          "name": "donor",
          "type": "address"
        },
        {
          "indexed": false,
          "internalType": "uint256",
          "name": "amount",
          "type": "uint256"
        },
        {
          "indexed": false,
          "internalType": "uint256",
          "name": "timestamp",
          "type": "uint256"
        }
      ],
      "name": "Donated",
      "type": "event"
    },
    {
      "inputs": [],
      "name": "donate",
      "outputs": [],
      "stateMutability": "payable",
      "type": "function"
    },
    {
      "inputs": [
        {
          "internalType": "address",
          "name": "user",
          "type": "address"
        }
      ],
      "name": "getTotalDonation",
      "outputs": [
        {
          "internalType": "uint256",
          "name": "",
          "type": "uint256"
        }
      ],
      "stateMutability": "view",
      "type": "function"
    },
    {
      "inputs": [
        {
          "internalType": "address",
          "name": "",
          "type": "address"
        }
      ],
      "name": "totalDonations",
      "outputs": [
        {
          "internalType": "uint256",
          "name": "",
          "type": "uint256"
        }
      ],
      "stateMutability": "view",
      "type": "function"
    }
  ],
  "bytecode": "0x6080604052348015600f57600080fd5b5061040a8061001f6000396000f3fe6080604052600436106100345760003560e01c80631699c732146100395780635a4c38a714610076578063ed88c68e146100b3575b600080fd5b34801561004557600080fd5b50610060600480360381019061005b919061026a565b6100bd565b60405161006d91906102b0565b60405180910390f35b34801561008257600080fd5b5061009d6004803603810190610098919061026a565b610105565b6040516100aa91906102b0565b60405180910390f35b6100bb61011d565b005b60008060008373ffffffffffffffffffffffffffffffffffffffff1673ffffffffffffffffffffffffffffffffffffffff168152602001908152602001600020549050919050565b60006020528060005260406000206000915090505481565b60003411610160576040517f08c379a000000000000000000000000000000000000000000000000000000000815260040161015790610328565b60405180910390fd5b346000803373ffffffffffffffffffffffffffffffffffffffff1673ffffffffffffffffffffffffffffffffffffffff16815260200190815260200160002060008282546101ae9190610377565b925050819055503373ffffffffffffffffffffffffffffffffffffffff167f4928895ba6723e8e27b15f32e4c3054a1b6c7f8c03f133558d6fa42b3928d14c34426040516101fd9291906103ab565b60405180910390a2565b600080fd5b600073ffffffffffffffffffffffffffffffffffffffff82169050919050565b60006102378261020c565b9050919050565b6102478161022c565b811461025257600080fd5b50565b6000813590506102648161023e565b92915050565b6000602082840312156102805761027f610207565b5b600061028e84828501610255565b91505092915050565b6000819050919050565b6102aa81610297565b82525050565b60006020820190506102c560008301846102a1565b92915050565b600082825260208201905092915050565b7f446f6e6174696f6e206d757374206265203e2030000000000000000000000000600082015250565b60006103126014836102cb565b915061031d826102dc565b602082019050919050565b6000602082019050818103600083015261034181610305565b9050919050565b7f4e487b7100000000000000000000000000000000000000000000000000000000600052601160045260246000fd5b600061038282610297565b915061038d83610297565b92508282019050808211156103a5576103a4610348565b5b92915050565b60006040820190506103c060008301856102a1565b6103cd60208301846102a1565b939250505056fea264697066735822122078d8f9c1a3181a73c8384a6b119cc27083184fac96de32df60e79f26d64cf54964736f6c634300081c0033",
  "linkReferences": {},
  "deployedLinkReferences": {}
}