{
  "_format": "hh-sol-artifact-1",
  "contractName": "Donation",
  "sourceName": "contracts/Donation.sol",
  "abi": [
    {
      "anonymous": false,
      "inputs": [
        {
          "indexed": true,
          "internalType": "uint256",
          "name": "campaignId",
          "type": "uint256"
        },
        {
          "indexed": true,
          "internalType": "address",
          "name": "donor",
          "type": "address"
        },
        {
          "indexed": false,
          "internalType": "uint256",
          "name": "amount",
          "type": "uint256"
        },
        {
          "indexed": false,
          "internalType": "uint256",
          "name": "timestamp",
          "type": "uint256"
        }
      ],
      "name": "Donated",
      "type": "event"
    },
    {
      "inputs": [
        {
          "internalType": "uint256",
          "name": "campaignId",
          "type": "uint256"
        }
      ],
      "name": "donate",
      "outputs": [],
      "stateMutability": "payable",
      "type": "function"
    },
    {
      "inputs": [
        {
          "internalType": "uint256",
          "name": "",
          "type": "uint256"
        },
        {
          "internalType": "address",
          "name": "",
          "type": "address"
        }
      ],
      "name": "donationByCampaign",
      "outputs": [
        {
          "internalType": "uint256",
          "name": "",
          "type": "uint256"
        }
      ],
      "stateMutability": "view",
      "type": "function"
    },
    {
      "inputs": [
        {
          "internalType": "uint256",
          "name": "campaignId",
          "type": "uint256"
        },
        {
          "internalType": "address",
          "name": "user",
          "type": "address"
        }
      ],
      "name": "getDonation",
      "outputs": [
        {
          "internalType": "uint256",
          "name": "",
          "type": "uint256"
        }
      ],
      "stateMutability": "view",
      "type": "function"
    },
    {
      "inputs": [
        {
          "internalType": "uint256",
          "name": "campaignId",
          "type": "uint256"
        }
      ],
      "name": "getTotalDonationByCampaign",
      "outputs": [
        {
          "internalType": "uint256",
          "name": "",
          "type": "uint256"
        }
      ],
      "stateMutability": "view",
      "type": "function"
    },
    {
      "inputs": [
        {
          "internalType": "uint256",
          "name": "",
          "type": "uint256"
        }
      ],
      "name": "totalFundByCampaign",
      "outputs": [
        {
          "internalType": "uint256",
          "name": "",
          "type": "uint256"
        }
      ],
      "stateMutability": "view",
      "type": "function"
    }
  ],
  "bytecode": "0x6080604052348015600f57600080fd5b506105a98061001f6000396000f3fe60806040526004361061004a5760003560e01c8063066a72a21461004f578063335f6f001461008c578063776f5d6a146100c9578063c2bacfa814610106578063f14faf6f14610143575b600080fd5b34801561005b57600080fd5b5061007660048036038101906100719190610375565b61015f565b60405161008391906103b1565b60405180910390f35b34801561009857600080fd5b506100b360048036038101906100ae919061042a565b61017c565b6040516100c091906103b1565b60405180910390f35b3480156100d557600080fd5b506100f060048036038101906100eb9190610375565b6101a1565b6040516100fd91906103b1565b60405180910390f35b34801561011257600080fd5b5061012d6004803603810190610128919061042a565b6101b9565b60405161013a91906103b1565b60405180910390f35b61015d60048036038101906101589190610375565b610213565b005b600060016000838152602001908152602001600020549050919050565b6000602052816000526040600020602052806000526040600020600091509150505481565b60016020528060005260406000206000915090505481565b600080600084815260200190815260200160002060008373ffffffffffffffffffffffffffffffffffffffff1673ffffffffffffffffffffffffffffffffffffffff16815260200190815260200160002054905092915050565b60003411610256576040517f08c379a000000000000000000000000000000000000000000000000000000000815260040161024d906104c7565b60405180910390fd5b3460008083815260200190815260200160002060003373ffffffffffffffffffffffffffffffffffffffff1673ffffffffffffffffffffffffffffffffffffffff16815260200190815260200160002060008282546102b59190610516565b92505081905550346001600083815260200190815260200160002060008282546102df9190610516565b925050819055503373ffffffffffffffffffffffffffffffffffffffff16817f27e413b8931dc4cb7edc879292ebc482a3047336d03423ea91addae7a2cf850a344260405161032f92919061054a565b60405180910390a350565b600080fd5b6000819050919050565b6103528161033f565b811461035d57600080fd5b50565b60008135905061036f81610349565b92915050565b60006020828403121561038b5761038a61033a565b5b600061039984828501610360565b91505092915050565b6103ab8161033f565b82525050565b60006020820190506103c660008301846103a2565b92915050565b600073ffffffffffffffffffffffffffffffffffffffff82169050919050565b60006103f7826103cc565b9050919050565b610407816103ec565b811461041257600080fd5b50565b600081359050610424816103fe565b92915050565b600080604083850312156104415761044061033a565b5b600061044f85828601610360565b925050602061046085828601610415565b9150509250929050565b600082825260208201905092915050565b7f446f6e6174696f6e206d757374206265203e2030000000000000000000000000600082015250565b60006104b160148361046a565b91506104bc8261047b565b602082019050919050565b600060208201905081810360008301526104e0816104a4565b9050919050565b7f4e487b7100000000000000000000000000000000000000000000000000000000600052601160045260246000fd5b60006105218261033f565b915061052c8361033f565b9250828201905080821115610544576105436104e7565b5b92915050565b600060408201905061055f60008301856103a2565b61056c60208301846103a2565b939250505056fea2646970667358221220a15595a1dd367bdcd1140025c3339640aa2b2720fe5f86f15099be81c01be08b64736f6c634300081c0033",
  "linkReferences": {},
  "deployedLinkReferences": {}
}