{
  "_format": "hh-sol-artifact-1",
  "contractName": "Donation",
  "sourceName": "contracts/Donation.sol",
  "abi": [
    {
      "anonymous": false,
      "inputs": [
        {
          "indexed": true,
          "internalType": "uint256",
          "name": "campaignId",
          "type": "uint256"
        },
        {
          "indexed": true,
          "internalType": "address",
          "name": "donor",
          "type": "address"
        },
        {
          "indexed": false,
          "internalType": "uint256",
          "name": "amount",
          "type": "uint256"
        },
        {
          "indexed": false,
          "internalType": "uint256",
          "name": "timestamp",
          "type": "uint256"
        }
      ],
      "name": "Donated",
      "type": "event"
    },
    {
      "inputs": [
        {
          "internalType": "uint256",
          "name": "campaignId",
          "type": "uint256"
        }
      ],
      "name": "donate",
      "outputs": [],
      "stateMutability": "payable",
      "type": "function"
    },
    {
      "inputs": [
        {
          "internalType": "uint256",
          "name": "",
          "type": "uint256"
        },
        {
          "internalType": "address",
          "name": "",
          "type": "address"
        }
      ],
      "name": "donationByCampaign",
      "outputs": [
        {
          "internalType": "uint256",
          "name": "",
          "type": "uint256"
        }
      ],
      "stateMutability": "view",
      "type": "function"
    },
    {
      "inputs": [
        {
          "internalType": "uint256",
          "name": "campaignId",
          "type": "uint256"
        },
        {
          "internalType": "address",
          "name": "user",
          "type": "address"
        }
      ],
      "name": "getDonation",
      "outputs": [
        {
          "internalType": "uint256",
          "name": "",
          "type": "uint256"
        }
      ],
      "stateMutability": "view",
      "type": "function"
    },
    {
      "inputs": [
        {
          "internalType": "address",
          "name": "user",
          "type": "address"
        }
      ],
      "name": "getTotalDonation",
      "outputs": [
        {
          "internalType": "uint256",
          "name": "",
          "type": "uint256"
        }
      ],
      "stateMutability": "view",
      "type": "function"
    },
    {
      "inputs": [
        {
          "internalType": "uint256",
          "name": "campaignId",
          "type": "uint256"
        }
      ],
      "name": "getTotalDonationByCampaign",
      "outputs": [
        {
          "internalType": "uint256",
          "name": "",
          "type": "uint256"
        }
      ],
      "stateMutability": "view",
      "type": "function"
    },
    {
      "inputs": [
        {
          "internalType": "address",
          "name": "",
          "type": "address"
        }
      ],
      "name": "totalDonationByUser",
      "outputs": [
        {
          "internalType": "uint256",
          "name": "",
          "type": "uint256"
        }
      ],
      "stateMutability": "view",
      "type": "function"
    },
    {
      "inputs": [
        {
          "internalType": "uint256",
          "name": "",
          "type": "uint256"
        }
      ],
      "name": "totalFundByCampaign",
      "outputs": [
        {
          "internalType": "uint256",
          "name": "",
          "type": "uint256"
        }
      ],
      "stateMutability": "view",
      "type": "function"
    }
  ],
  "bytecode": "0x6080604052348015600f57600080fd5b5061072d8061001f6000396000f3fe6080604052600436106100705760003560e01c8063776f5d6a1161004e578063776f5d6a1461012c578063b8d432dd14610169578063c2bacfa8146101a6578063f14faf6f146101e357610070565b8063066a72a2146100755780631699c732146100b2578063335f6f00146100ef575b600080fd5b34801561008157600080fd5b5061009c600480360381019061009791906104cc565b6101ff565b6040516100a99190610508565b60405180910390f35b3480156100be57600080fd5b506100d960048036038101906100d49190610581565b61021c565b6040516100e69190610508565b60405180910390f35b3480156100fb57600080fd5b50610116600480360381019061011191906105ae565b610265565b6040516101239190610508565b60405180910390f35b34801561013857600080fd5b50610153600480360381019061014e91906104cc565b61028a565b6040516101609190610508565b60405180910390f35b34801561017557600080fd5b50610190600480360381019061018b9190610581565b6102a2565b60405161019d9190610508565b60405180910390f35b3480156101b257600080fd5b506101cd60048036038101906101c891906105ae565b6102ba565b6040516101da9190610508565b60405180910390f35b6101fd60048036038101906101f891906104cc565b610314565b005b600060016000838152602001908152602001600020549050919050565b6000600260008373ffffffffffffffffffffffffffffffffffffffff1673ffffffffffffffffffffffffffffffffffffffff168152602001908152602001600020549050919050565b6000602052816000526040600020602052806000526040600020600091509150505481565b60016020528060005260406000206000915090505481565b60026020528060005260406000206000915090505481565b600080600084815260200190815260200160002060008373ffffffffffffffffffffffffffffffffffffffff1673ffffffffffffffffffffffffffffffffffffffff16815260200190815260200160002054905092915050565b60003411610357576040517f08c379a000000000000000000000000000000000000000000000000000000000815260040161034e9061064b565b60405180910390fd5b3460008083815260200190815260200160002060003373ffffffffffffffffffffffffffffffffffffffff1673ffffffffffffffffffffffffffffffffffffffff16815260200190815260200160002060008282546103b6919061069a565b92505081905550346001600083815260200190815260200160002060008282546103e0919061069a565b9250508190555034600260003373ffffffffffffffffffffffffffffffffffffffff1673ffffffffffffffffffffffffffffffffffffffff1681526020019081526020016000206000828254610436919061069a565b925050819055503373ffffffffffffffffffffffffffffffffffffffff16817f27e413b8931dc4cb7edc879292ebc482a3047336d03423ea91addae7a2cf850a34426040516104869291906106ce565b60405180910390a350565b600080fd5b6000819050919050565b6104a981610496565b81146104b457600080fd5b50565b6000813590506104c6816104a0565b92915050565b6000602082840312156104e2576104e1610491565b5b60006104f0848285016104b7565b91505092915050565b61050281610496565b82525050565b600060208201905061051d60008301846104f9565b92915050565b600073ffffffffffffffffffffffffffffffffffffffff82169050919050565b600061054e82610523565b9050919050565b61055e81610543565b811461056957600080fd5b50565b60008135905061057b81610555565b92915050565b60006020828403121561059757610596610491565b5b60006105a58482850161056c565b91505092915050565b600080604083850312156105c5576105c4610491565b5b60006105d3858286016104b7565b92505060206105e48582860161056c565b9150509250929050565b600082825260208201905092915050565b7f446f6e6174696f6e206d757374206265203e2030000000000000000000000000600082015250565b60006106356014836105ee565b9150610640826105ff565b602082019050919050565b6000602082019050818103600083015261066481610628565b9050919050565b7f4e487b7100000000000000000000000000000000000000000000000000000000600052601160045260246000fd5b60006106a582610496565b91506106b083610496565b92508282019050808211156106c8576106c761066b565b5b92915050565b60006040820190506106e360008301856104f9565b6106f060208301846104f9565b939250505056fea2646970667358221220da6dfb6d64e35b0f0400457b12d161a3a7ef3fd476125e7bcb34fda27132522764736f6c634300081c0033",
  "linkReferences": {},
  "deployedLinkReferences": {}
}